:100000000C9492000C94BA000C94BA000C94BA00B0
:100010000C94BA000C94BA000C94BA000C94BA0078
:100020000C94BA000C94BA000C94F3030C94620480
:100030000C94BA000C94BA000C94BA000C94BA0058
:100040000C94BA000C94BA000C94BA000C94BA0048
:100050000C94BA000C94BA000C94BA000C94940658
:100060000C94BA000C94BA000C94BA000C94BA0028
:100070000C94BA000C94BA000C94BA000C94BA0018
:100080000C94BA000C94BA000C94BA000C94BA0008
:100090000C94BA000C94BA000C94BA000C94BA00F8
:1000A0000C94BA000C94BA000C94BA00080B00022D
:1000B0000202000009040000010202000005240001
:1000C0001001052401010104240206052406000193
:1000D0000705810310004009040100020A00000026
:1000E00007050202400000070583024000000403E8
:1000F000090412010002EF02014041233680000191
:100100000102030141726475696E6F204C4C43001B
:1001100041726475696E6F204C656F6E6172646FB9
:1001200000006C0A11241FBECFEFDAE0DEBFCDBFA6
:1001300011E0A0E0B1E0E2E1F5E102C005900D922E
:10014000A632B107D9F721E0A6E2B1E001C01D92C5
:10015000A33BB207E1F710E0C2E9D0E004C0219769
:10016000FE010E94810AC139D107C9F70E94DE064B
:100170000C94870A0C940000FC018091B201882342
:1001800011F13FB7F89482E08093E9002091F200EA
:10019000822F90E01816190614F481E090E088236D
:1001A00039F0289844E64093B1014091F100408332
:1001B000222339F02091F200211103C02BE6209375
:1001C000E8003FBF08958FEF9FEF08952FB7F89491
:1001D00083E08093E9009091E800892F807295FF79
:1001E00004C09091F20080E4891B2FBF0895809194
:1001F000A90181110DC082E08093A50184E0809364
:10020000A6011092A8011092A70181E08093A90194
:1002100085EA91E0089540912D0150912E012091A1
:100220002B0130912C0142175307B4F49091E80050
:100230009570E1F39091E80092FD19C08093F10070
:1002400080912D0190912E0101968F739927892B12
:1002500019F48EEF8093E80080912D0190912E018A
:10026000019690932E0180932D0181E0089580E006
:100270000895EF92FF920F931F93CF93DF93F82E81
:10028000192FE62E042F81E0860F880F0E940B01A4
:1002900083E00E940B01CF2DD12FEC0EFD2EF11C1F
:1002A000CE15DF05B9F007FF13C0FE0184910E944F
:1002B0000B01182F80E00E940B01812321968111F0
:1002C000EFCFDF91CF911F910F91FF90EF900895A5
:1002D0008881EDCF81E0F5CFDF92EF92FF920F930F
:1002E0001F93CF93DF93D82E8A01EB017B01E40E9D
:1002F000F51ECE15DF0559F0D7FE12C0FE01849120
:100300000E940B0121968111F4CF0FEF1FEFC8015E
:10031000DF91CF911F910F91FF90EF90DF900895A3
:100320008881EECF0F931F93CF93DF931F92CDB7AA
:10033000DEB782E0898342E450E06CEA70E080E856
:100340000E946C010E94F700DC0112960D911C9135
:100350000115110589F0D801ED91FC910280F3811E
:10036000E02DBE016F5F7F4FC801099597FD04C066
:10037000F80100851185ECCF89810F90DF91CF9135
:100380001F910F910895615030F02091F100FC0110
:1003900020830196F8CF289884E68093B1010895D0
:1003A000CF93DF931F92CDB7DEB76983DC01ED9168
:1003B000FC910280F381E02D41E050E0BE016F5FCF
:1003C0007F4F09950F90DF91CF91089583E080933F
:1003D000E9008091F200882319F08AE38093E80015
:1003E00008950E94E60090E00895CF93DF931F9256
:1003F000CDB7DEB7FC018485958597FD08C02FEF4A
:100400003FEF358724870F90DF91CF910895CE017C
:1004100001960E94BC00019719F4898190E0F3CF06
:100420008FEF9FEFF0CF0F931F93CF93DF931F9228
:10043000CDB7DEB78C01FC018485958597FF0BC095
:10044000CE0101960E94BC00019771F4898190E071
:10045000F80195878487F801848595850F90DF9151
:10046000CF911F910F9108958FEF9FEFF1CFFC0176
:100470008485958597FD0BC09FB7F89482E08093A3
:10048000E9008091F2009FBF90E0019608959FB728
:10049000F89482E08093E9008091F2009FBF90E0A1
:1004A00008953FB7F8948091270190912801A09179
:1004B0002901B0912A0126B5A89B05C02F3F19F04C
:1004C0000196A11DB11D3FBFBA2FA92F982F8827D4
:1004D000BC01CD01620F711D811D911D42E0660FAF
:1004E000771F881F991F4A95D1F708958F929F9281
:1004F000AF92BF92CF92DF92EF92FF924B015C01DD
:100500000E9451026B017C010E9451026C197D090D
:100510008E099F09683E734081059105A8F321E08B
:10052000821A9108A108B10888EEC80E83E0D81E8F
:10053000E11CF11C81149104A104B10429F7FF907E
:10054000EF90DF90CF90BF90AF909F908F900895E5
:100550008F929F92AF92BF92CF92DF92EF92FF92D3
:100560000F931F93CF93DF936C017B018A018091DE
:100570000B01882309F45CC08091B201882309F43F
:1005800057C08091310180FF05C08091E0008260FA
:100590008093E000E801B12C8AEFA82E93E0892E29
:1005A0002AE3922E209711F4BB20D9F10E94E60095
:1005B00081110AC0AA94AA20D9F161E070E080E01C
:1005C00090E00E947602EECF8C171D0611F00CF021
:1005D0008C2F9FB7F8948092E9002091E80025FDC8
:1005E00002C09FBFDFCF282F30E0C21BD30BF70123
:1005F000815020F041914093F100FACFE20EF31EBA
:10060000BB2021F09092E800B12CEBCF8091E80064
:1006100085FDE7CF9092E800BB24B394209709F3BF
:10062000F3CF5D9884E680933001101611063CF0FC
:1006300081E090E0F6019383828310E000E0C8013E
:10064000DF91CF911F910F91FF90EF90DF90CF90AE
:10065000BF90AF909F908F900895682F85E591E0AF
:100660000C94D00185E591E00E9437021816190616
:10067000CCF785E591E00E94F50108950E943203D0
:10068000803229F085E10E942D0380E0089581E009
:1006900008950E943E03882331F084E10E942D03D7
:1006A00080E10C942D0308958BE190E00197F1F720
:1006B000589A83E090E00197F1F758980895EF92E7
:1006C000FF920F931F93CF93DF93F82EE62E499B53
:1006D000FECF5B985A980E94540308E010E0C0E8EF
:1006E000D0E05B988F2D8C2309F05B9A5A988E2D61
:1006F0008C2309F05A9A4999DC2B0E945403C69521
:100700000150110971F75B985A980E9454030E9496
:1007100054038D2FDF91CF911F910F91FF90EF9098
:10072000089564E680E00E945F036CE680E00C942C
:100730005F036CE1809133010E945F0364E680E017
:100740000E945F036CE680E00C945F03CF93C0913E
:100750004A016CE0809149010E945F036CE18C2F9B
:100760000E945F0368E680E00E945F036CE680E021
:10077000CF910C945F03CF93C82F6CE488E00E9464
:100780005F036CE08C2F0E945F0368E680E00E94AC
:100790005F036CE680E0CF910C945F03869A8E9A9B
:1007A000259A2D98269A2E9A089586988E98259A9D
:1007B0002D9A269A2E98089580915401882311F03D
:1007C000499BFECF8D9853985B9852985A985098B1
:1007D0005898599880914F01811102C00E94D50309
:1007E0001092540108951F920F920FB60F92112488
:1007F0008F939F938091E1009091E100937F90937C
:10080000E10083FF0FC01092E90091E09093EB00AC
:100810001092EC0092E39093ED001092B20198E0F8
:100820009093F00082FF22C093E09093E9009091B2
:10083000F200992319F09AE39093E8009091300127
:10084000992341F090913001915090933001911192
:1008500001C05D9A9091B101992341F09091B1014D
:1008600091509093B101911101C0289A84FF18C052
:100870008091E2008E7E81608093E2008091E100B1
:100880008F7E8093E100809131018E7E8061809324
:1008900031019F918F910F900FBE0F901F9018956F
:1008A00080FFF7CF8091E2008E7E80618093E2002E
:1008B0008091E1008E7E8093E100809131018E7EF7
:1008C0008160E5CF1F920F920FB60F921124CF9245
:1008D000DF92EF92FF920F931F932F933F934F93CB
:1008E0005F936F937F938F939F93AF93BF93EF9398
:1008F000FF93CF93DF93CDB7DEB76C97DEBFCDBF4D
:100900001092E9008091E80083FF25C068E0CE01E5
:1009100045960E94C30182EF8093E8008D8987FF8E
:1009200039C09091E80090FFFCCF982F907609F0A5
:1009300034C19E894F89588D2F89F88C911131C00F
:10094000803861F5809132018093F1001092F100BE
:100950008EEF8093E8006C960FB6F894DEBF0FBE62
:10096000CDBFDF91CF91FF91EF91BF91AF919F915B
:100970008F917F916F915F914F913F912F911F9137
:100980000F91FF90EF90DF90CF900F900FBE0F90E0
:100990001F9018959EEF9093E800C7CF1092F1003A
:1009A000D5CF913059F48111D3CF4130510581F623
:1009B000809132018D7F80933201CACF933049F408
:1009C0008111C6CF4130510519F680913201826004
:1009D000F2CF953041F48091E80080FFFCCF206891
:1009E0002093E300B5CF963009F0A9C00B8D1C8D84
:1009F00022E01092E90010922E0110922D01F212C5
:100A00002EC010922C0110922B010E9492011F8285
:100A100099E09983FA8291E09E8390EA98879AEF11
:100A2000998720912D0130912E01275F3F4F3C8304
:100A30002B838D831092E90010922E0110922D01CC
:100A400010932C0100932B0149E050E0BE016F5F31
:100A50007F4F80E00E946C010E94920179CF109339
:100A60002C0100932B010E94F700DC0112960D91DE
:100A70001C910115110509F451C1D801ED91FC91AA
:100A80000480F581E02DBE016B5E7F4FC8010995A2
:100A9000009709F03EC1F80100851185EACFF3E027
:100AA000FF120EC08F89882309F440C0823061F4A0
:100AB00040E860E180E191E00E943901811148CF76
:100AC00081E28093EB0047CF813029F440E86BE06E
:100AD00084E091E0F1CF833099F70E94F700DC01C8
:100AE0001296ED90FC908E010F5F1F4F6801E1148C
:100AF000F10479F0D701ED91FC910680F781E02DAA
:100B0000B801C7010995080F111DF701E084F184B0
:100B1000EECFD8011C92F60101900020E9F7319741
:100B2000BF016C197D0940E0C601C6CF6EEE70E0D2
:100B3000FB01449150E080E80E946C0109CF97309E
:100B400009F4BECF983021F481E08093F10000CF0A
:100B5000993009F0FDCE837009F0B2CFEFE1F1E0FA
:100B600081E031E096E32191222371F08093E90046
:100B70003093EB00DF0111972C912093EC009093C0
:100B8000ED008F5F873079F78EE78093EA0010924F
:100B9000EA008F898093B201DBCE8B8D9C8D109201
:100BA000E90010922E0110922D0190932C01809358
:100BB0002B01898D811192C08E899D89913A49F4CA
:100BC000813209F07DCF47E050E064E071E080E0E1
:100BD000B3CF913209F074CF833269F48F89988D45
:100BE000B0E0A0E08093000190930101A093020186
:100BF000B0930301ADCE803269F48091E80082FFAA
:100C0000FCCF67E084E091E00E94C3018BEF80930A
:100C1000E8009ECE823209F09BCE8F8980930B0133
:100C2000EEEFFFE7859194918B3F9C4D51F1E0E011
:100C3000F8E08091040190910501A0910601B09126
:100C40000701803B9440A105B105F1F480910B01AF
:100C500080FD1AC0EE3F8AE0F80789F587E797E73D
:100C6000918380838091600080932F0188E19BE0D5
:100C70000FB6F894A895809360000FBE9093600023
:100C800067CEEEEFFAE0D5CF808191818737974725
:100C900009F05ECEA8958091600088618093600025
:100CA00080912F0180936000EE3F2AE0F20789F0E7
:100CB0008091FE0A9091FF0A9183808349CE8081C2
:100CC00091818737980751F29093FF0A8093FE0A2B
:100CD000C5CF1092FF0A1092FE0A3ACE0E94F7008A
:100CE000DC0112960D911C910115110509F4E8CE55
:100CF000D801ED91FC910190F081E02DBE016B5E79
:100D00007F4FC8010995811123CEF8010085118517
:100D1000EBCF181619060CF41BCED2CEF1E0FF1261
:100D2000BECE62EF70E004CF1F920F920FB60F920B
:100D300011242F933F938F939F93AF93BF938091F1
:100D40004B0190914C01A0914D01B0914E01309119
:100D5000260123E0230F2D3758F50196A11DB11D63
:100D60002093260180934B0190934C01A0934D0159
:100D7000B0934E018091270190912801A091290103
:100D8000B0912A010196A11DB11D80932701909376
:100D90002801A0932901B0932A01BF91AF919F919F
:100DA0008F913F912F910F900FBE0F901F9018952C
:100DB00026E8230F0296A11DB11DD2CF789484B5E9
:100DC000826084BD84B5816084BD85B5826085BD47
:100DD00085B5816085BD80916E00816080936E00D5
:100DE00010928100809181008260809381008091C7
:100DF0008100816080938100809180008160809378
:100E00008000809191008260809391008091910098
:100E10008160809391008091900081608093900028
:100E20008091C10084608093C1008091C100826084
:100E30008093C1008091C10081608093C100809146
:100E4000C30081608093C3008091C0008260809362
:100E5000C0008091C20081608093C20080917A00BE
:100E6000846080937A0080917A00826080937A0017
:100E700080917A00816080937A0080917A00806806
:100E800080937A001092B2011092320110923101D7
:100E90008091D70081608093D70080EA8093D8004A
:100EA00089B5806189BD89B5826089BD09B400FEBC
:100EB000FDCF61E070E080E090E00E9476028091DA
:100EC000D8008F7C80618093D8008091E000807F83
:100ED0008093E0008091E1008E7E8093E1008DE0C0
:100EE0008093E200559A209A27982F9A859A8D9898
:100EF0000E94DC030E94D5038FEF9FEF9093620165
:100F0000809361017BE4872E912CE3E2EE2EF12C9D
:100F1000FBEACF2EF4E0DF2E55245394A0E06A2E96
:100F2000A0E07A2E4424439485E591E00E943702A4
:100F3000181619060CF0C7C0479A0E943203813573
:100F400009F425C108F04FC0823409F4AFC068F439
:100F5000803309F4B5C0813409F493C00E943E0384
:100F6000882309F4AFC082E189C0853409F400C147
:100F70008035A1F7809154018111A2C080914F0169
:100F80008823B1F08D9A69E170E080E090E00E94E2
:100F900076028D9869E170E080E090E00E94760230
:100FA0000E94D5036AEF70E080E090E00E94760234
:100FB000509A5898519A5998529A5A98539A5B98BD
:100FC0000E94CE03C4010197F1F78D9AC7010197E2
:100FD000F1F75198599AC6010197F1F740925401DF
:100FE000109253016DC0843609F4CAC180F585356D
:100FF00009F453C1863509F0B1CF0E943203C82FDE
:101000000E943203082F0E943203182F0E943203DD
:10101000D82F0E943E03882309F454C084E10E9423
:101020002D039C2F802F883038E5930709F402C1E7
:1010300008F0C3C0811550E5950709F4E4C008F035
:10104000A9C08115904309F4D9C08D2F2CC08437D5
:1010500009F42FC1853709F081CF0E943E03882310
:1010600089F184E10E942D03C0E08C2F0E94BB0314
:101070000E942D03CF5FC330C1F780E10E942D0392
:1010800021C00E943203C2E0803829F08158C1E0BB
:10109000823008F0C0E00E943E03882399F084E18A
:1010A0000E942D038C2F0E942D03E7CFC4E3D1E0D3
:1010B0000E9432038883649622E0C43CD207C1F7C1
:1010C0000E94490347988091540181114AC02091A0
:1010D00053012093520193B1892F8095881F88274F
:1010E000881F80935301211111C097FD0FC02FB7A6
:1010F000F89480914B0190914C01A0914D01B091D9
:101100004E012FBF90935101809350018091520165
:10111000882339F180915301811123C02FB7F894AE
:1011200080914B0190914C01A0914D01B0914E01E5
:101130002FBF20915001309151012817390708F035
:10114000C3C1821B930B45978F3D914050F4809112
:101150004F01852580934F01882309F4BAC10E946D
:10116000CE036114710409F4DFCE0E940000DCCECE
:101170000E943203D82F0E94320380934801C2E0BC
:10118000CD1708F09DCF0E943203CF5FF9CF0E94A8
:10119000DC0396CF883040E5940709F441C08115FF
:1011A000984509F052CF6CE484E00E945F0368E741
:1011B00080E00E945F036CE72FC0843A2CEA92071C
:1011C00009F44CC078F480384CEA9407E9F1803A8D
:1011D0009C4A09F03ACF6CE480E40E945F036CE221
:1011E0008D2F34C0883A2CEA920709F448C0803E1B
:1011F0009C4A09F02ACF6CE480E2EFCF812F0E9455
:10120000BB03D82F22CF6CE484E00E945F0368E622
:1012100080E00E945F036CE680E00E945F03F1CFF4
:101220006CE484E00E945F036AE680E00E945F0352
:101230006EE6F2CF6CE484E00E945F036AE780E030
:101240000E945F036EE7E8CF6CE480E80E945F03D2
:1012500064E680E00E945F036CE60DC06CE480E40D
:101260000E945F036CE28D2F0E945F0366E680E0C0
:101270000E945F036EE680E00E945F03E6CE6CE4AE
:1012800080E40E945F036CE28D2F0E945F0364E79D
:1012900080E00E945F036CE7EECF0E943203C82F0C
:1012A0000E943203982F8C2F90934A01809349011A
:1012B00007CF0E943203D82F0E943203C82F0E940A
:1012C0003203182F0E943E03882309F4FBCE84E1E9
:1012D0000E942D036CE4153421F583E00E945F0326
:1012E0008091490190914A01880F991F90934A017A
:1012F00080934901219750F00E94A6030E942D037C
:101300008091490190914A010196F0CF8091490165
:1013100090914A019695879590934A01809349014F
:10132000ACCE82E00E945F03209709F4A6CE0E9413
:10133000A6030E942D03C130D105F9F06CE680E0D0
:101340000E945F0368E780E00E945F036CE780E033
:101350000E945F03182F6CE780E00E945F03812FDB
:101360000E942D0322978091490190914A01019694
:1013700090934A0180934901D7CFD0E0C0E0F3CFEA
:101380000E943203082F0E943203102F082F0E9460
:101390003203853409F04DC0C0914901D0914A0112
:1013A0006CE481E10E945F0380914801282F215065
:1013B000330B5901CC0FDD1FD0934A01C093490173
:1013C00001501109C0914901D0914A010F3F100706
:1013D00019F10E943203382E6CE08C2F0E945F03BB
:1013E0006CE18D2F0E945F036CE2832D0E945F03EE
:1013F0006DE680E00E945F036CE680E00E945F0380
:101400002196D0934A01C0934901CA21DB21CD2BFB
:10141000B9F60E949103D4CFAC22BD22AB2811F0C3
:101420000E949103D695C795D0934A01C093490174
:1014300047CE6CE480E10E945F03C091400140E828
:10144000C49FE00111248091410190E0959587951A
:10145000C82BD92B2197A0904901B0904A010115C2
:10146000110551F10E943203382EB09233016CE025
:101470008A2D0E945F036CE2832D0E945F030E940D
:1014800032036CE30E945F036DE780E00E945F031C
:101490006CE780E00E945F035FEFA51AB50AB09287
:1014A0004A01A0924901AC22BD22AB2811F40E944E
:1014B000990302501109CFCFCA21DB21CD2B09F4AA
:1014C000FFCD0E949903FCCDA901481B590BCA010D
:1014D0003ACE0E94D50345CEE5E5F1E013821282B3
:1014E00088EE93E0A0E0B0E084839583A683B78381
:1014F00080E191E0918380838FEF9FEF95878487D0
:101500000895EE0FFF1F0590F491E02D0994F894D3
:02151000FFCF0B
:10151200FFFFFFFF00E100000000000000000000EC
:10152200D001A802F101E6013702F501130200C160
:06153200808100000000B2
:00000001FF
